:100000000C9472000C9493000C9493000C94930045
:100010000C9493000C9493000C9493000C94930014
:100020000C9493000C9493000C9493000C94930004
:100030000C9493000C9493000C9493000C949300F4
:100040000C9493000C9493000C9493000C949300E4
:100050000C9493000C9493000C9493000C949300D4
:100060000C9493000C9493000C9493000C949300C4
:100070000C9493000C9493000C9493000C949300B4
:100080000C9493000C9493000C9493000C949300A4
:100090000C9493000C9493000C9493000C94930094
:1000A0000C9493000C9493000C9493000C94930084
:1000B0000C9493000C9493000C9493000C94930074
:1000C0000C9493000C9493000C9493000C94930064
:1000D0000C9493000C9493000C9493000C94930054
:1000E0000C94930011241FBECFEFD1E2DEBFCDBF31
:1000F00000E00CBF12E0A0E0B2E0ECE2F5E000E0CE
:100100000BBF02C007900D92A631B107D9F712E0DC
:10011000A6E1B2E001C01D92A232B107E1F70E9450
:1001200098000C9494020C9400006F98779A0895AC
:100130000E9495000E94BB000E942A0100E012E08C
:10014000CCE0D2E0679B06C081E064E0A8010E9499
:100150009301F8CF0E94650181E064E0AE010E9446
:1001600093018FEF9FEFACE281509040A040E1F708
:1001700000C00000E7CF87B1876F87B988B188706A
:1001800088B9089586E69EE00197F1F7000040984F
:10019000419880E388B9429AEFEFF7E43197F1F79D
:1001A00000C000004298E6E6FEE03197F1F700005B
:1001B0004098419888B9429AEFEFF7E43197F1F708
:1001C00000C000004298E6E6FEE03197F1F700003B
:1001D0004098419888B9429A8FEF97E40197F1F7D8
:1001E00000C000004298E6E6FEE03197F1F700001B
:1001F0004098419880E288B9429A8FEF97E401973E
:10020000F1F700C000004298089598B19F7098B926
:1002100098B1282F207F922B98B940984198429A04
:10022000EFEFF7E43197F1F700C00000429898B182
:100230009F7098B998B18295807F892B88B9409832
:100240004198429A8FEF97E40197F1F700C00000C0
:10025000429808950E94C20086E69EE00197F1F759
:10026000000088E20E94050181E00E94050186E00D
:100270000E9405018EE00E94050180E80E940501B0
:10028000089580E80E9405010895823079F0833056
:1002900018F48130C9F405C0833069F08430A1F4CA
:1002A0000FC0862F81580E9405010895862F815422
:1002B0000E9405010895862F8D560E94050108951C
:1002C000862F8D520E940501089581E00E9405014C
:1002D0000895CF93C42F0E94450188B18F7088B9CB
:1002E00088B19C2F907F892B88B9409A4198429A77
:1002F0008FEF97E40197F1F700C00000429888B1B2
:100300008F7088B988B1C295C07FC82BC8B9409A90
:100310004198429A8FEF97E40197F1F700C00000EF
:100320004298CF9108950F931F93CF93DF93D82FC7
:10033000C62FFA014081442369F08F010F5F1F4FE0
:100340008D2F6C2F0E946901CF5FF80141918F01C1
:100350004423B1F7DF91CF911F910F910895EF9250
:10036000FF920F931F93CF93DF93D82FC62F7A015D
:1003700089010E944501FF205CF4F094E194F108AA
:10038000F3948D2F6C2F44E152E00E949301CF5FD4
:10039000DD2311F0CC2319F40E94410104C08D2FFC
:1003A0006C2F0E9445010530110591F4C70160E1F1
:1003B00077E20E948102AB01405D5F4F50931702CC
:1003C000409316028D2F6C2F0E946901CF5F03C0EE
:1003D00004301105E1F4C70168EE73E00E94810268
:1003E000CB0170931902609318026AE070E00E94DA
:1003F0006D02AC01405D5F4F50932102409320029B
:100400008D2F6C2F0E946901CF5F81E001C080E0D9
:100410000330110511F08130D9F4C70164E670E0B2
:100420000E948102CB0170931902609318026AE066
:1004300070E00E946D02AC01405D5F4F50931D0261
:1004400040931C028D2F6C2F0E946901CF5F81E0C9
:100450000230110511F08130D9F42AE030E0C701F3
:10046000B9010E948102CB017093190260931802B6
:10047000B9010E946D02AC01405D5F4F50931B02B9
:1004800040931A028D2F6C2F0E946901CF5F81E08B
:100490000130110511F0813089F4C7016AE070E084
:1004A0000E948102AC01405D5F4F50931F02409358
:1004B0001E028D2F6C2F0E946901CF5F063011053F
:1004C0002CF08D2F6C2F45E40E946901DF91CF91B4
:1004D0001F910F91FF90EF900895AA1BBB1B51E154
:1004E00007C0AA1FBB1FA617B70710F0A61BB70BA4
:1004F000881F991F5A95A9F780959095BC01CD0149
:10050000089597FB092E07260AD077FD04D0E5DF72
:1005100006D000201AF4709561957F4F0895F6F784
:0C052000909581959F4F0895F894FFCFAF
:10052C004E4F54205052455353454400505245535E
:06053C00534544002D00B0
:00000001FF
